{
	"contracts/item-1.sol": {
		"ItemOne": {
			"abi": [
				{
					"inputs": [
						{
							"internalType": "int256",
							"name": "a",
							"type": "int256"
						},
						{
							"internalType": "int256",
							"name": "b",
							"type": "int256"
						}
					],
					"name": "add",
					"outputs": [
						{
							"internalType": "int256",
							"name": "",
							"type": "int256"
						}
					],
					"stateMutability": "pure",
					"type": "function"
				},
				{
					"inputs": [
						{
							"internalType": "int256",
							"name": "a",
							"type": "int256"
						},
						{
							"internalType": "int256",
							"name": "b",
							"type": "int256"
						}
					],
					"name": "divide",
					"outputs": [
						{
							"internalType": "int256",
							"name": "",
							"type": "int256"
						}
					],
					"stateMutability": "pure",
					"type": "function"
				},
				{
					"inputs": [
						{
							"internalType": "int256",
							"name": "a",
							"type": "int256"
						},
						{
							"internalType": "int256",
							"name": "b",
							"type": "int256"
						}
					],
					"name": "minus",
					"outputs": [
						{
							"internalType": "int256",
							"name": "",
							"type": "int256"
						}
					],
					"stateMutability": "pure",
					"type": "function"
				},
				{
					"inputs": [
						{
							"internalType": "int256",
							"name": "a",
							"type": "int256"
						},
						{
							"internalType": "int256",
							"name": "b",
							"type": "int256"
						}
					],
					"name": "multiply",
					"outputs": [
						{
							"internalType": "int256",
							"name": "",
							"type": "int256"
						}
					],
					"stateMutability": "pure",
					"type": "function"
				}
			],
			"devdoc": {
				"kind": "dev",
				"methods": {},
				"version": 1
			},
			"evm": {
				"assembly": "    /* \"contracts/item-1.sol\":57:448  contract ItemOne {... */\n  mstore(0x40, 0x80)\n  callvalue\n  dup1\n  iszero\n  tag_1\n  jumpi\n  0x00\n  dup1\n  revert\ntag_1:\n  pop\n  dataSize(sub_0)\n  dup1\n  dataOffset(sub_0)\n  0x00\n  codecopy\n  0x00\n  return\nstop\n\nsub_0: assembly {\n        /* \"contracts/item-1.sol\":57:448  contract ItemOne {... */\n      mstore(0x40, 0x80)\n      callvalue\n      dup1\n      iszero\n      tag_1\n      jumpi\n      0x00\n      dup1\n      revert\n    tag_1:\n      pop\n      jumpi(tag_2, lt(calldatasize, 0x04))\n      shr(0xe0, calldataload(0x00))\n      dup1\n      0x1858c77d\n      eq\n      tag_3\n      jumpi\n      dup1\n      0x3c4308a8\n      eq\n      tag_4\n      jumpi\n      dup1\n      0xa5f3c23b\n      eq\n      tag_5\n      jumpi\n      dup1\n      0xf5984236\n      eq\n      tag_6\n      jumpi\n    tag_2:\n      0x00\n      dup1\n      revert\n        /* \"contracts/item-1.sol\":170:255  function minus(int a, int b) public  pure returns (int) {... */\n    tag_3:\n      tag_7\n      0x04\n      dup1\n      calldatasize\n      sub\n      dup2\n      add\n      swap1\n      tag_8\n      swap2\n      swap1\n      tag_9\n      jump\t// in\n    tag_8:\n      tag_10\n      jump\t// in\n    tag_7:\n      mload(0x40)\n      tag_11\n      swap2\n      swap1\n      tag_12\n      jump\t// in\n    tag_11:\n      mload(0x40)\n      dup1\n      swap2\n      sub\n      swap1\n      return\n        /* \"contracts/item-1.sol\":261:349  function multiply(int a, int b) public  pure returns (int) {... */\n    tag_4:\n      tag_13\n      0x04\n      dup1\n      calldatasize\n      sub\n      dup2\n      add\n      swap1\n      tag_14\n      swap2\n      swap1\n      tag_9\n      jump\t// in\n    tag_14:\n      tag_15\n      jump\t// in\n    tag_13:\n      mload(0x40)\n      tag_16\n      swap2\n      swap1\n      tag_12\n      jump\t// in\n    tag_16:\n      mload(0x40)\n      dup1\n      swap2\n      sub\n      swap1\n      return\n        /* \"contracts/item-1.sol\":81:164  function add(int a, int b) public  pure returns (int) {... */\n    tag_5:\n      tag_17\n      0x04\n      dup1\n      calldatasize\n      sub\n      dup2\n      add\n      swap1\n      tag_18\n      swap2\n      swap1\n      tag_9\n      jump\t// in\n    tag_18:\n      tag_19\n      jump\t// in\n    tag_17:\n      mload(0x40)\n      tag_20\n      swap2\n      swap1\n      tag_12\n      jump\t// in\n    tag_20:\n      mload(0x40)\n      dup1\n      swap2\n      sub\n      swap1\n      return\n        /* \"contracts/item-1.sol\":355:441  function divide(int a, int b) public  pure returns (int) {... */\n    tag_6:\n      tag_21\n      0x04\n      dup1\n      calldatasize\n      sub\n      dup2\n      add\n      swap1\n      tag_22\n      swap2\n      swap1\n      tag_9\n      jump\t// in\n    tag_22:\n      tag_23\n      jump\t// in\n    tag_21:\n      mload(0x40)\n      tag_24\n      swap2\n      swap1\n      tag_12\n      jump\t// in\n    tag_24:\n      mload(0x40)\n      dup1\n      swap2\n      sub\n      swap1\n      return\n        /* \"contracts/item-1.sol\":170:255  function minus(int a, int b) public  pure returns (int) {... */\n    tag_10:\n        /* \"contracts/item-1.sol\":221:224  int */\n      0x00\n        /* \"contracts/item-1.sol\":247:248  b */\n      dup2\n        /* \"contracts/item-1.sol\":243:244  a */\n      dup4\n        /* \"contracts/item-1.sol\":243:248  a - b */\n      tag_26\n      swap2\n      swap1\n      tag_27\n      jump\t// in\n    tag_26:\n        /* \"contracts/item-1.sol\":236:248  return a - b */\n      swap1\n      pop\n        /* \"contracts/item-1.sol\":170:255  function minus(int a, int b) public  pure returns (int) {... */\n      swap3\n      swap2\n      pop\n      pop\n      jump\t// out\n        /* \"contracts/item-1.sol\":261:349  function multiply(int a, int b) public  pure returns (int) {... */\n    tag_15:\n        /* \"contracts/item-1.sol\":315:318  int */\n      0x00\n        /* \"contracts/item-1.sol\":341:342  b */\n      dup2\n        /* \"contracts/item-1.sol\":337:338  a */\n      dup4\n        /* \"contracts/item-1.sol\":337:342  a * b */\n      tag_29\n      swap2\n      swap1\n      tag_30\n      jump\t// in\n    tag_29:\n        /* \"contracts/item-1.sol\":330:342  return a * b */\n      swap1\n      pop\n        /* \"contracts/item-1.sol\":261:349  function multiply(int a, int b) public  pure returns (int) {... */\n      swap3\n      swap2\n      pop\n      pop\n      jump\t// out\n        /* \"contracts/item-1.sol\":81:164  function add(int a, int b) public  pure returns (int) {... */\n    tag_19:\n        /* \"contracts/item-1.sol\":130:133  int */\n      0x00\n        /* \"contracts/item-1.sol\":156:157  b */\n      dup2\n        /* \"contracts/item-1.sol\":152:153  a */\n      dup4\n        /* \"contracts/item-1.sol\":152:157  a + b */\n      tag_32\n      swap2\n      swap1\n      tag_33\n      jump\t// in\n    tag_32:\n        /* \"contracts/item-1.sol\":145:157  return a + b */\n      swap1\n      pop\n        /* \"contracts/item-1.sol\":81:164  function add(int a, int b) public  pure returns (int) {... */\n      swap3\n      swap2\n      pop\n      pop\n      jump\t// out\n        /* \"contracts/item-1.sol\":355:441  function divide(int a, int b) public  pure returns (int) {... */\n    tag_23:\n        /* \"contracts/item-1.sol\":407:410  int */\n      0x00\n        /* \"contracts/item-1.sol\":433:434  b */\n      dup2\n        /* \"contracts/item-1.sol\":429:430  a */\n      dup4\n        /* \"contracts/item-1.sol\":429:434  a / b */\n      tag_35\n      swap2\n      swap1\n      tag_36\n      jump\t// in\n    tag_35:\n        /* \"contracts/item-1.sol\":422:434  return a / b */\n      swap1\n      pop\n        /* \"contracts/item-1.sol\":355:441  function divide(int a, int b) public  pure returns (int) {... */\n      swap3\n      swap2\n      pop\n      pop\n      jump\t// out\n        /* \"#utility.yul\":88:205   */\n    tag_38:\n        /* \"#utility.yul\":197:198   */\n      0x00\n        /* \"#utility.yul\":194:195   */\n      dup1\n        /* \"#utility.yul\":187:199   */\n      revert\n        /* \"#utility.yul\":334:410   */\n    tag_40:\n        /* \"#utility.yul\":370:377   */\n      0x00\n        /* \"#utility.yul\":399:404   */\n      dup2\n        /* \"#utility.yul\":388:404   */\n      swap1\n      pop\n        /* \"#utility.yul\":334:410   */\n      swap2\n      swap1\n      pop\n      jump\t// out\n        /* \"#utility.yul\":416:536   */\n    tag_41:\n        /* \"#utility.yul\":488:511   */\n      tag_52\n        /* \"#utility.yul\":505:510   */\n      dup2\n        /* \"#utility.yul\":488:511   */\n      tag_40\n      jump\t// in\n    tag_52:\n        /* \"#utility.yul\":481:486   */\n      dup2\n        /* \"#utility.yul\":478:512   */\n      eq\n        /* \"#utility.yul\":468:530   */\n      tag_53\n      jumpi\n        /* \"#utility.yul\":526:527   */\n      0x00\n        /* \"#utility.yul\":523:524   */\n      dup1\n        /* \"#utility.yul\":516:528   */\n      revert\n        /* \"#utility.yul\":468:530   */\n    tag_53:\n        /* \"#utility.yul\":416:536   */\n      pop\n      jump\t// out\n        /* \"#utility.yul\":542:679   */\n    tag_42:\n        /* \"#utility.yul\":587:592   */\n      0x00\n        /* \"#utility.yul\":625:631   */\n      dup2\n        /* \"#utility.yul\":612:632   */\n      calldataload\n        /* \"#utility.yul\":603:632   */\n      swap1\n      pop\n        /* \"#utility.yul\":641:673   */\n      tag_55\n        /* \"#utility.yul\":667:672   */\n      dup2\n        /* \"#utility.yul\":641:673   */\n      tag_41\n      jump\t// in\n    tag_55:\n        /* \"#utility.yul\":542:679   */\n      swap3\n      swap2\n      pop\n      pop\n      jump\t// out\n        /* \"#utility.yul\":685:1155   */\n    tag_9:\n        /* \"#utility.yul\":751:757   */\n      0x00\n        /* \"#utility.yul\":759:765   */\n      dup1\n        /* \"#utility.yul\":808:810   */\n      0x40\n        /* \"#utility.yul\":796:805   */\n      dup4\n        /* \"#utility.yul\":787:794   */\n      dup6\n        /* \"#utility.yul\":783:806   */\n      sub\n        /* \"#utility.yul\":779:811   */\n      slt\n        /* \"#utility.yul\":776:895   */\n      iszero\n      tag_57\n      jumpi\n        /* \"#utility.yul\":814:893   */\n      tag_58\n      tag_38\n      jump\t// in\n    tag_58:\n        /* \"#utility.yul\":776:895   */\n    tag_57:\n        /* \"#utility.yul\":934:935   */\n      0x00\n        /* \"#utility.yul\":959:1011   */\n      tag_59\n        /* \"#utility.yul\":1003:1010   */\n      dup6\n        /* \"#utility.yul\":994:1000   */\n      dup3\n        /* \"#utility.yul\":983:992   */\n      dup7\n        /* \"#utility.yul\":979:1001   */\n      add\n        /* \"#utility.yul\":959:1011   */\n      tag_42\n      jump\t// in\n    tag_59:\n        /* \"#utility.yul\":949:1011   */\n      swap3\n      pop\n        /* \"#utility.yul\":905:1021   */\n      pop\n        /* \"#utility.yul\":1060:1062   */\n      0x20\n        /* \"#utility.yul\":1086:1138   */\n      tag_60\n        /* \"#utility.yul\":1130:1137   */\n      dup6\n        /* \"#utility.yul\":1121:1127   */\n      dup3\n        /* \"#utility.yul\":1110:1119   */\n      dup7\n        /* \"#utility.yul\":1106:1128   */\n      add\n        /* \"#utility.yul\":1086:1138   */\n      tag_42\n      jump\t// in\n    tag_60:\n        /* \"#utility.yul\":1076:1138   */\n      swap2\n      pop\n        /* \"#utility.yul\":1031:1148   */\n      pop\n        /* \"#utility.yul\":685:1155   */\n      swap3\n      pop\n      swap3\n      swap1\n      pop\n      jump\t// out\n        /* \"#utility.yul\":1161:1276   */\n    tag_43:\n        /* \"#utility.yul\":1246:1269   */\n      tag_62\n        /* \"#utility.yul\":1263:1268   */\n      dup2\n        /* \"#utility.yul\":1246:1269   */\n      tag_40\n      jump\t// in\n    tag_62:\n        /* \"#utility.yul\":1241:1244   */\n      dup3\n        /* \"#utility.yul\":1234:1270   */\n      mstore\n        /* \"#utility.yul\":1161:1276   */\n      pop\n      pop\n      jump\t// out\n        /* \"#utility.yul\":1282:1500   */\n    tag_12:\n        /* \"#utility.yul\":1373:1377   */\n      0x00\n        /* \"#utility.yul\":1411:1413   */\n      0x20\n        /* \"#utility.yul\":1400:1409   */\n      dup3\n        /* \"#utility.yul\":1396:1414   */\n      add\n        /* \"#utility.yul\":1388:1414   */\n      swap1\n      pop\n        /* \"#utility.yul\":1424:1493   */\n      tag_64\n        /* \"#utility.yul\":1490:1491   */\n      0x00\n        /* \"#utility.yul\":1479:1488   */\n      dup4\n        /* \"#utility.yul\":1475:1492   */\n      add\n        /* \"#utility.yul\":1466:1472   */\n      dup5\n        /* \"#utility.yul\":1424:1493   */\n      tag_43\n      jump\t// in\n    tag_64:\n        /* \"#utility.yul\":1282:1500   */\n      swap3\n      swap2\n      pop\n      pop\n      jump\t// out\n        /* \"#utility.yul\":1506:1686   */\n    tag_44:\n        /* \"#utility.yul\":1554:1631   */\n      0x4e487b7100000000000000000000000000000000000000000000000000000000\n        /* \"#utility.yul\":1551:1552   */\n      0x00\n        /* \"#utility.yul\":1544:1632   */\n      mstore\n        /* \"#utility.yul\":1651:1655   */\n      0x11\n        /* \"#utility.yul\":1648:1649   */\n      0x04\n        /* \"#utility.yul\":1641:1656   */\n      mstore\n        /* \"#utility.yul\":1675:1679   */\n      0x24\n        /* \"#utility.yul\":1672:1673   */\n      0x00\n        /* \"#utility.yul\":1665:1680   */\n      revert\n        /* \"#utility.yul\":1692:2064   */\n    tag_27:\n        /* \"#utility.yul\":1731:1735   */\n      0x00\n        /* \"#utility.yul\":1751:1770   */\n      tag_67\n        /* \"#utility.yul\":1768:1769   */\n      dup3\n        /* \"#utility.yul\":1751:1770   */\n      tag_40\n      jump\t// in\n    tag_67:\n        /* \"#utility.yul\":1746:1770   */\n      swap2\n      pop\n        /* \"#utility.yul\":1784:1803   */\n      tag_68\n        /* \"#utility.yul\":1801:1802   */\n      dup4\n        /* \"#utility.yul\":1784:1803   */\n      tag_40\n      jump\t// in\n    tag_68:\n        /* \"#utility.yul\":1779:1803   */\n      swap3\n      pop\n        /* \"#utility.yul\":1827:1828   */\n      dup3\n        /* \"#utility.yul\":1824:1825   */\n      dup3\n        /* \"#utility.yul\":1820:1829   */\n      sub\n        /* \"#utility.yul\":1812:1829   */\n      swap1\n      pop\n        /* \"#utility.yul\":2021:2022   */\n      dup2\n        /* \"#utility.yul\":2015:2019   */\n      dup2\n        /* \"#utility.yul\":2011:2023   */\n      slt\n        /* \"#utility.yul\":2007:2008   */\n      0x00\n        /* \"#utility.yul\":2004:2005   */\n      dup5\n        /* \"#utility.yul\":2000:2009   */\n      slt\n        /* \"#utility.yul\":1996:2024   */\n      and\n        /* \"#utility.yul\":1979:1980   */\n      dup3\n        /* \"#utility.yul\":1973:1977   */\n      dup3\n        /* \"#utility.yul\":1969:1981   */\n      sgt\n        /* \"#utility.yul\":1964:1965   */\n      0x00\n        /* \"#utility.yul\":1961:1962   */\n      dup6\n        /* \"#utility.yul\":1957:1966   */\n      slt\n        /* \"#utility.yul\":1950:1967   */\n      iszero\n        /* \"#utility.yul\":1946:1982   */\n      and\n        /* \"#utility.yul\":1930:2034   */\n      or\n        /* \"#utility.yul\":1927:2057   */\n      iszero\n      tag_69\n      jumpi\n        /* \"#utility.yul\":2037:2055   */\n      tag_70\n      tag_44\n      jump\t// in\n    tag_70:\n        /* \"#utility.yul\":1927:2057   */\n    tag_69:\n        /* \"#utility.yul\":1692:2064   */\n      swap3\n      swap2\n      pop\n      pop\n      jump\t// out\n        /* \"#utility.yul\":2070:2626   */\n    tag_30:\n        /* \"#utility.yul\":2109:2116   */\n      0x00\n        /* \"#utility.yul\":2132:2151   */\n      tag_72\n        /* \"#utility.yul\":2149:2150   */\n      dup3\n        /* \"#utility.yul\":2132:2151   */\n      tag_40\n      jump\t// in\n    tag_72:\n        /* \"#utility.yul\":2127:2151   */\n      swap2\n      pop\n        /* \"#utility.yul\":2165:2184   */\n      tag_73\n        /* \"#utility.yul\":2182:2183   */\n      dup4\n        /* \"#utility.yul\":2165:2184   */\n      tag_40\n      jump\t// in\n    tag_73:\n        /* \"#utility.yul\":2160:2184   */\n      swap3\n      pop\n        /* \"#utility.yul\":2219:2220   */\n      dup3\n        /* \"#utility.yul\":2216:2217   */\n      dup3\n        /* \"#utility.yul\":2212:2221   */\n      mul\n        /* \"#utility.yul\":2241:2270   */\n      tag_74\n        /* \"#utility.yul\":2258:2269   */\n      dup2\n        /* \"#utility.yul\":2241:2270   */\n      tag_40\n      jump\t// in\n    tag_74:\n        /* \"#utility.yul\":2230:2270   */\n      swap2\n      pop\n        /* \"#utility.yul\":2328:2394   */\n      0x8000000000000000000000000000000000000000000000000000000000000000\n        /* \"#utility.yul\":2325:2326   */\n      dup5\n        /* \"#utility.yul\":2322:2395   */\n      eq\n        /* \"#utility.yul\":2318:2319   */\n      0x00\n        /* \"#utility.yul\":2315:2316   */\n      dup5\n        /* \"#utility.yul\":2311:2320   */\n      slt\n        /* \"#utility.yul\":2307:2396   */\n      and\n        /* \"#utility.yul\":2304:2419   */\n      iszero\n      tag_75\n      jumpi\n        /* \"#utility.yul\":2399:2417   */\n      tag_76\n      tag_44\n      jump\t// in\n    tag_76:\n        /* \"#utility.yul\":2304:2419   */\n    tag_75:\n        /* \"#utility.yul\":2569:2570   */\n      dup3\n        /* \"#utility.yul\":2560:2567   */\n      dup3\n        /* \"#utility.yul\":2555:2571   */\n      sdiv\n        /* \"#utility.yul\":2552:2553   */\n      dup5\n        /* \"#utility.yul\":2549:2572   */\n      eq\n        /* \"#utility.yul\":2529:2530   */\n      dup4\n        /* \"#utility.yul\":2522:2531   */\n      iszero\n        /* \"#utility.yul\":2502:2586   */\n      or\n        /* \"#utility.yul\":2479:2619   */\n      tag_77\n      jumpi\n        /* \"#utility.yul\":2599:2617   */\n      tag_78\n      tag_44\n      jump\t// in\n    tag_78:\n        /* \"#utility.yul\":2479:2619   */\n    tag_77:\n        /* \"#utility.yul\":2117:2626   */\n      pop\n        /* \"#utility.yul\":2070:2626   */\n      swap3\n      swap2\n      pop\n      pop\n      jump\t// out\n        /* \"#utility.yul\":2632:3007   */\n    tag_33:\n        /* \"#utility.yul\":2671:2674   */\n      0x00\n        /* \"#utility.yul\":2690:2709   */\n      tag_80\n        /* \"#utility.yul\":2707:2708   */\n      dup3\n        /* \"#utility.yul\":2690:2709   */\n      tag_40\n      jump\t// in\n    tag_80:\n        /* \"#utility.yul\":2685:2709   */\n      swap2\n      pop\n        /* \"#utility.yul\":2723:2742   */\n      tag_81\n        /* \"#utility.yul\":2740:2741   */\n      dup4\n        /* \"#utility.yul\":2723:2742   */\n      tag_40\n      jump\t// in\n    tag_81:\n        /* \"#utility.yul\":2718:2742   */\n      swap3\n      pop\n        /* \"#utility.yul\":2765:2766   */\n      dup3\n        /* \"#utility.yul\":2762:2763   */\n      dup3\n        /* \"#utility.yul\":2758:2767   */\n      add\n        /* \"#utility.yul\":2751:2767   */\n      swap1\n      pop\n        /* \"#utility.yul\":2963:2964   */\n      dup3\n        /* \"#utility.yul\":2958:2961   */\n      dup2\n        /* \"#utility.yul\":2954:2965   */\n      slt\n        /* \"#utility.yul\":2947:2966   */\n      iszero\n        /* \"#utility.yul\":2943:2944   */\n      0x00\n        /* \"#utility.yul\":2940:2941   */\n      dup4\n        /* \"#utility.yul\":2936:2945   */\n      slt\n        /* \"#utility.yul\":2932:2967   */\n      and\n        /* \"#utility.yul\":2915:2916   */\n      dup4\n        /* \"#utility.yul\":2910:2913   */\n      dup3\n        /* \"#utility.yul\":2906:2917   */\n      slt\n        /* \"#utility.yul\":2901:2902   */\n      0x00\n        /* \"#utility.yul\":2898:2899   */\n      dup5\n        /* \"#utility.yul\":2894:2903   */\n      slt\n        /* \"#utility.yul\":2887:2904   */\n      iszero\n        /* \"#utility.yul\":2883:2918   */\n      and\n        /* \"#utility.yul\":2867:2977   */\n      or\n        /* \"#utility.yul\":2864:3000   */\n      iszero\n      tag_82\n      jumpi\n        /* \"#utility.yul\":2980:2998   */\n      tag_83\n      tag_44\n      jump\t// in\n    tag_83:\n        /* \"#utility.yul\":2864:3000   */\n    tag_82:\n        /* \"#utility.yul\":2632:3007   */\n      swap3\n      swap2\n      pop\n      pop\n      jump\t// out\n        /* \"#utility.yul\":3013:3193   */\n    tag_45:\n        /* \"#utility.yul\":3061:3138   */\n      0x4e487b7100000000000000000000000000000000000000000000000000000000\n        /* \"#utility.yul\":3058:3059   */\n      0x00\n        /* \"#utility.yul\":3051:3139   */\n      mstore\n        /* \"#utility.yul\":3158:3162   */\n      0x12\n        /* \"#utility.yul\":3155:3156   */\n      0x04\n        /* \"#utility.yul\":3148:3163   */\n      mstore\n        /* \"#utility.yul\":3182:3186   */\n      0x24\n        /* \"#utility.yul\":3179:3180   */\n      0x00\n        /* \"#utility.yul\":3172:3187   */\n      revert\n        /* \"#utility.yul\":3199:3584   */\n    tag_36:\n        /* \"#utility.yul\":3238:3239   */\n      0x00\n        /* \"#utility.yul\":3255:3274   */\n      tag_86\n        /* \"#utility.yul\":3272:3273   */\n      dup3\n        /* \"#utility.yul\":3255:3274   */\n      tag_40\n      jump\t// in\n    tag_86:\n        /* \"#utility.yul\":3250:3274   */\n      swap2\n      pop\n        /* \"#utility.yul\":3288:3307   */\n      tag_87\n        /* \"#utility.yul\":3305:3306   */\n      dup4\n        /* \"#utility.yul\":3288:3307   */\n      tag_40\n      jump\t// in\n    tag_87:\n        /* \"#utility.yul\":3283:3307   */\n      swap3\n      pop\n        /* \"#utility.yul\":3326:3327   */\n      dup3\n        /* \"#utility.yul\":3316:3351   */\n      tag_88\n      jumpi\n        /* \"#utility.yul\":3331:3349   */\n      tag_89\n      tag_45\n      jump\t// in\n    tag_89:\n        /* \"#utility.yul\":3316:3351   */\n    tag_88:\n        /* \"#utility.yul\":3517:3518   */\n      0x01\n        /* \"#utility.yul\":3514:3515   */\n      0x00\n        /* \"#utility.yul\":3510:3519   */\n      sub\n        /* \"#utility.yul\":3507:3508   */\n      dup4\n        /* \"#utility.yul\":3504:3520   */\n      eq\n        /* \"#utility.yul\":3423:3489   */\n      0x8000000000000000000000000000000000000000000000000000000000000000\n        /* \"#utility.yul\":3420:3421   */\n      dup4\n        /* \"#utility.yul\":3417:3490   */\n      eq\n        /* \"#utility.yul\":3400:3530   */\n      and\n        /* \"#utility.yul\":3397:3553   */\n      iszero\n      tag_90\n      jumpi\n        /* \"#utility.yul\":3533:3551   */\n      tag_91\n      tag_44\n      jump\t// in\n    tag_91:\n        /* \"#utility.yul\":3397:3553   */\n    tag_90:\n        /* \"#utility.yul\":3576:3577   */\n      dup3\n        /* \"#utility.yul\":3573:3574   */\n      dup3\n        /* \"#utility.yul\":3568:3578   */\n      sdiv\n        /* \"#utility.yul\":3563:3578   */\n      swap1\n      pop\n        /* \"#utility.yul\":3199:3584   */\n      swap3\n      swap2\n      pop\n      pop\n      jump\t// out\n\n    auxdata: 0xa2646970667358221220089628e4e8fd6c2b820a768f4a1345851ef53554a7c212875ba245a9ee86225764736f6c634300081a0033\n}\n",
				"bytecode": {
					"linkReferences": {},
					"object": "6080604052348015600e575f80fd5b506103ee8061001c5f395ff3fe608060405234801561000f575f80fd5b506004361061004a575f3560e01c80631858c77d1461004e5780633c4308a81461007e578063a5f3c23b146100ae578063f5984236146100de575b5f80fd5b61006860048036038101906100639190610199565b61010e565b60405161007591906101e6565b60405180910390f35b61009860048036038101906100939190610199565b610123565b6040516100a591906101e6565b60405180910390f35b6100c860048036038101906100c39190610199565b610138565b6040516100d591906101e6565b60405180910390f35b6100f860048036038101906100f39190610199565b61014d565b60405161010591906101e6565b60405180910390f35b5f818361011b919061022c565b905092915050565b5f8183610130919061026c565b905092915050565b5f818361014591906102e2565b905092915050565b5f818361015a9190610350565b905092915050565b5f80fd5b5f819050919050565b61017881610166565b8114610182575f80fd5b50565b5f813590506101938161016f565b92915050565b5f80604083850312156101af576101ae610162565b5b5f6101bc85828601610185565b92505060206101cd85828601610185565b9150509250929050565b6101e081610166565b82525050565b5f6020820190506101f95f8301846101d7565b92915050565b7f4e487b71000000000000000000000000000000000000000000000000000000005f52601160045260245ffd5b5f61023682610166565b915061024183610166565b925082820390508181125f8412168282135f851215161715610266576102656101ff565b5b92915050565b5f61027682610166565b915061028183610166565b925082820261028f81610166565b91507f800000000000000000000000000000000000000000000000000000000000000084145f841216156102c6576102c56101ff565b5b82820584148315176102db576102da6101ff565b5b5092915050565b5f6102ec82610166565b91506102f783610166565b92508282019050828112155f8312168382125f84121516171561031d5761031c6101ff565b5b92915050565b7f4e487b71000000000000000000000000000000000000000000000000000000005f52601260045260245ffd5b5f61035a82610166565b915061036583610166565b92508261037557610374610323565b5b60015f0383147f8000000000000000000000000000000000000000000000000000000000000000831416156103ad576103ac6101ff565b5b82820590509291505056fea2646970667358221220089628e4e8fd6c2b820a768f4a1345851ef53554a7c212875ba245a9ee86225764736f6c634300081a0033",
					"opcodes": "PUSH1 0x80 PUSH1 0x40 MSTORE CALLVALUE DUP1 ISZERO PUSH1 0xE JUMPI PUSH0 DUP1 REVERT JUMPDEST POP PUSH2 0x3EE DUP1 PUSH2 0x1C PUSH0 CODECOPY PUSH0 RETURN INVALID PUSH1 0x80 PUSH1 0x40 MSTORE CALLVALUE DUP1 ISZERO PUSH2 0xF JUMPI PUSH0 DUP1 REVERT JUMPDEST POP PUSH1 0x4 CALLDATASIZE LT PUSH2 0x4A JUMPI PUSH0 CALLDATALOAD PUSH1 0xE0 SHR DUP1 PUSH4 0x1858C77D EQ PUSH2 0x4E JUMPI DUP1 PUSH4 0x3C4308A8 EQ PUSH2 0x7E JUMPI DUP1 PUSH4 0xA5F3C23B EQ PUSH2 0xAE JUMPI DUP1 PUSH4 0xF5984236 EQ PUSH2 0xDE JUMPI JUMPDEST PUSH0 DUP1 REVERT JUMPDEST PUSH2 0x68 PUSH1 0x4 DUP1 CALLDATASIZE SUB DUP2 ADD SWAP1 PUSH2 0x63 SWAP2 SWAP1 PUSH2 0x199 JUMP JUMPDEST PUSH2 0x10E JUMP JUMPDEST PUSH1 0x40 MLOAD PUSH2 0x75 SWAP2 SWAP1 PUSH2 0x1E6 JUMP JUMPDEST PUSH1 0x40 MLOAD DUP1 SWAP2 SUB SWAP1 RETURN JUMPDEST PUSH2 0x98 PUSH1 0x4 DUP1 CALLDATASIZE SUB DUP2 ADD SWAP1 PUSH2 0x93 SWAP2 SWAP1 PUSH2 0x199 JUMP JUMPDEST PUSH2 0x123 JUMP JUMPDEST PUSH1 0x40 MLOAD PUSH2 0xA5 SWAP2 SWAP1 PUSH2 0x1E6 JUMP JUMPDEST PUSH1 0x40 MLOAD DUP1 SWAP2 SUB SWAP1 RETURN JUMPDEST PUSH2 0xC8 PUSH1 0x4 DUP1 CALLDATASIZE SUB DUP2 ADD SWAP1 PUSH2 0xC3 SWAP2 SWAP1 PUSH2 0x199 JUMP JUMPDEST PUSH2 0x138 JUMP JUMPDEST PUSH1 0x40 MLOAD PUSH2 0xD5 SWAP2 SWAP1 PUSH2 0x1E6 JUMP JUMPDEST PUSH1 0x40 MLOAD DUP1 SWAP2 SUB SWAP1 RETURN JUMPDEST PUSH2 0xF8 PUSH1 0x4 DUP1 CALLDATASIZE SUB DUP2 ADD SWAP1 PUSH2 0xF3 SWAP2 SWAP1 PUSH2 0x199 JUMP JUMPDEST PUSH2 0x14D JUMP JUMPDEST PUSH1 0x40 MLOAD PUSH2 0x105 SWAP2 SWAP1 PUSH2 0x1E6 JUMP JUMPDEST PUSH1 0x40 MLOAD DUP1 SWAP2 SUB SWAP1 RETURN JUMPDEST PUSH0 DUP2 DUP4 PUSH2 0x11B SWAP2 SWAP1 PUSH2 0x22C JUMP JUMPDEST SWAP1 POP SWAP3 SWAP2 POP POP JUMP JUMPDEST PUSH0 DUP2 DUP4 PUSH2 0x130 SWAP2 SWAP1 PUSH2 0x26C JUMP JUMPDEST SWAP1 POP SWAP3 SWAP2 POP POP JUMP JUMPDEST PUSH0 DUP2 DUP4 PUSH2 0x145 SWAP2 SWAP1 PUSH2 0x2E2 JUMP JUMPDEST SWAP1 POP SWAP3 SWAP2 POP POP JUMP JUMPDEST PUSH0 DUP2 DUP4 PUSH2 0x15A SWAP2 SWAP1 PUSH2 0x350 JUMP JUMPDEST SWAP1 POP SWAP3 SWAP2 POP POP JUMP JUMPDEST PUSH0 DUP1 REVERT JUMPDEST PUSH0 DUP2 SWAP1 POP SWAP2 SWAP1 POP JUMP JUMPDEST PUSH2 0x178 DUP2 PUSH2 0x166 JUMP JUMPDEST DUP2 EQ PUSH2 0x182 JUMPI PUSH0 DUP1 REVERT JUMPDEST POP JUMP JUMPDEST PUSH0 DUP2 CALLDATALOAD SWAP1 POP PUSH2 0x193 DUP2 PUSH2 0x16F JUMP JUMPDEST SWAP3 SWAP2 POP POP JUMP JUMPDEST PUSH0 DUP1 PUSH1 0x40 DUP4 DUP6 SUB SLT ISZERO PUSH2 0x1AF JUMPI PUSH2 0x1AE PUSH2 0x162 JUMP JUMPDEST JUMPDEST PUSH0 PUSH2 0x1BC DUP6 DUP3 DUP7 ADD PUSH2 0x185 JUMP JUMPDEST SWAP3 POP POP PUSH1 0x20 PUSH2 0x1CD DUP6 DUP3 DUP7 ADD PUSH2 0x185 JUMP JUMPDEST SWAP2 POP POP SWAP3 POP SWAP3 SWAP1 POP JUMP JUMPDEST PUSH2 0x1E0 DUP2 PUSH2 0x166 JUMP JUMPDEST DUP3 MSTORE POP POP JUMP JUMPDEST PUSH0 PUSH1 0x20 DUP3 ADD SWAP1 POP PUSH2 0x1F9 PUSH0 DUP4 ADD DUP5 PUSH2 0x1D7 JUMP JUMPDEST SWAP3 SWAP2 POP POP JUMP JUMPDEST PUSH32 0x4E487B7100000000000000000000000000000000000000000000000000000000 PUSH0 MSTORE PUSH1 0x11 PUSH1 0x4 MSTORE PUSH1 0x24 PUSH0 REVERT JUMPDEST PUSH0 PUSH2 0x236 DUP3 PUSH2 0x166 JUMP JUMPDEST SWAP2 POP PUSH2 0x241 DUP4 PUSH2 0x166 JUMP JUMPDEST SWAP3 POP DUP3 DUP3 SUB SWAP1 POP DUP2 DUP2 SLT PUSH0 DUP5 SLT AND DUP3 DUP3 SGT PUSH0 DUP6 SLT ISZERO AND OR ISZERO PUSH2 0x266 JUMPI PUSH2 0x265 PUSH2 0x1FF JUMP JUMPDEST JUMPDEST SWAP3 SWAP2 POP POP JUMP JUMPDEST PUSH0 PUSH2 0x276 DUP3 PUSH2 0x166 JUMP JUMPDEST SWAP2 POP PUSH2 0x281 DUP4 PUSH2 0x166 JUMP JUMPDEST SWAP3 POP DUP3 DUP3 MUL PUSH2 0x28F DUP2 PUSH2 0x166 JUMP JUMPDEST SWAP2 POP PUSH32 0x8000000000000000000000000000000000000000000000000000000000000000 DUP5 EQ PUSH0 DUP5 SLT AND ISZERO PUSH2 0x2C6 JUMPI PUSH2 0x2C5 PUSH2 0x1FF JUMP JUMPDEST JUMPDEST DUP3 DUP3 SDIV DUP5 EQ DUP4 ISZERO OR PUSH2 0x2DB JUMPI PUSH2 0x2DA PUSH2 0x1FF JUMP JUMPDEST JUMPDEST POP SWAP3 SWAP2 POP POP JUMP JUMPDEST PUSH0 PUSH2 0x2EC DUP3 PUSH2 0x166 JUMP JUMPDEST SWAP2 POP PUSH2 0x2F7 DUP4 PUSH2 0x166 JUMP JUMPDEST SWAP3 POP DUP3 DUP3 ADD SWAP1 POP DUP3 DUP2 SLT ISZERO PUSH0 DUP4 SLT AND DUP4 DUP3 SLT PUSH0 DUP5 SLT ISZERO AND OR ISZERO PUSH2 0x31D JUMPI PUSH2 0x31C PUSH2 0x1FF JUMP JUMPDEST JUMPDEST SWAP3 SWAP2 POP POP JUMP JUMPDEST PUSH32 0x4E487B7100000000000000000000000000000000000000000000000000000000 PUSH0 MSTORE PUSH1 0x12 PUSH1 0x4 MSTORE PUSH1 0x24 PUSH0 REVERT JUMPDEST PUSH0 PUSH2 0x35A DUP3 PUSH2 0x166 JUMP JUMPDEST SWAP2 POP PUSH2 0x365 DUP4 PUSH2 0x166 JUMP JUMPDEST SWAP3 POP DUP3 PUSH2 0x375 JUMPI PUSH2 0x374 PUSH2 0x323 JUMP JUMPDEST JUMPDEST PUSH1 0x1 PUSH0 SUB DUP4 EQ PUSH32 0x8000000000000000000000000000000000000000000000000000000000000000 DUP4 EQ AND ISZERO PUSH2 0x3AD JUMPI PUSH2 0x3AC PUSH2 0x1FF JUMP JUMPDEST JUMPDEST DUP3 DUP3 SDIV SWAP1 POP SWAP3 SWAP2 POP POP JUMP INVALID LOG2 PUSH5 0x6970667358 0x22 SLT KECCAK256 ADDMOD SWAP7 0x28 0xE4 0xE8 REVERT PUSH13 0x2B820A768F4A1345851EF53554 0xA7 0xC2 SLT DUP8 JUMPDEST LOG2 GASLIMIT 0xA9 0xEE DUP7 0x22 JUMPI PUSH5 0x736F6C6343 STOP ADDMOD BYTE STOP CALLER "
				},
				"gasEstimates": {
					"creation": {
						"codeDepositCost": "201200",
						"executionCost": "243",
						"totalCost": "201443"
					},
					"external": {
						"add(int256,int256)": "infinite",
						"divide(int256,int256)": "infinite",
						"minus(int256,int256)": "infinite",
						"multiply(int256,int256)": "infinite"
					}
				},
				"methodIdentifiers": {
					"add(int256,int256)": "a5f3c23b",
					"divide(int256,int256)": "f5984236",
					"minus(int256,int256)": "1858c77d",
					"multiply(int256,int256)": "3c4308a8"
				}
			},
			"storageLayout": {
				"storage": [],
				"types": null
			},
			"userdoc": {
				"kind": "user",
				"methods": {},
				"version": 1
			}
		}
	}
}