{
	"data": {
		"bytecode": {
			"linkReferences": {},
			"object": "6080604052348015600e575f80fd5b506106068061001c5f395ff3fe608060405234801561000f575f80fd5b5060043610610029575f3560e01c80632a7b2c931461002d575b5f80fd5b610047600480360381019061004291906103b0565b61005d565b6040516100549190610506565b60405180910390f35b61006561023b565b61006d61023b565b5f80845190505f602067ffffffffffffffff81111561008f5761008e61028c565b5b6040519080825280601f01601f1916602001820160405280156100c15781602001600182028036833780820191505090505b5090505f805b83811015610200575f8882815181106100e3576100e2610526565b5b602001015160f81c60f81b9050602060f81b817effffffffffffffffffffffffffffffffffffffffffffffffffffffffffffff1916036101a3575f8490508088888061012e90610589565b99506020811061014157610140610526565b5b6020020181905250602067ffffffffffffffff8111156101645761016361028c565b5b6040519080825280601f01601f1916602001820160405280156101965781602001600182028036833780820191505090505b5094505f935050506101f3565b808484806101b090610589565b9550815181106101c3576101c2610526565b5b60200101907effffffffffffffffffffffffffffffffffffffffffffffffffffffffffffff191690815f1a905350505b80806001019150506100c7565b505f8290508086868061021290610589565b97506020811061022557610224610526565b5b6020020181905250859650505050505050919050565b6040518061040001604052806020905b606081526020019060019003908161024b5790505090565b5f604051905090565b5f80fd5b5f80fd5b5f80fd5b5f80fd5b5f601f19601f8301169050919050565b7f4e487b71000000000000000000000000000000000000000000000000000000005f52604160045260245ffd5b6102c28261027c565b810181811067ffffffffffffffff821117156102e1576102e061028c565b5b80604052505050565b5f6102f3610263565b90506102ff82826102b9565b919050565b5f67ffffffffffffffff82111561031e5761031d61028c565b5b6103278261027c565b9050602081019050919050565b828183375f83830152505050565b5f61035461034f84610304565b6102ea565b9050828152602081018484840111156103705761036f610278565b5b61037b848285610334565b509392505050565b5f82601f83011261039757610396610274565b5b81356103a7848260208601610342565b91505092915050565b5f602082840312156103c5576103c461026c565b5b5f82013567ffffffffffffffff8111156103e2576103e1610270565b5b6103ee84828501610383565b91505092915050565b5f60209050919050565b5f81905092915050565b5f819050919050565b5f81519050919050565b5f82825260208201905092915050565b8281835e5f83830152505050565b5f61044682610414565b610450818561041e565b935061046081856020860161042e565b6104698161027c565b840191505092915050565b5f61047f838361043c565b905092915050565b5f602082019050919050565b5f61049d826103f7565b6104a78185610401565b9350836020820285016104b98561040b565b805f5b858110156104f457848403895281516104d58582610474565b94506104e083610487565b925060208a019950506001810190506104bc565b50829750879550505050505092915050565b5f6020820190508181035f83015261051e8184610493565b905092915050565b7f4e487b71000000000000000000000000000000000000000000000000000000005f52603260045260245ffd5b7f4e487b71000000000000000000000000000000000000000000000000000000005f52601160045260245ffd5b5f819050919050565b5f61059382610580565b91507fffffffffffffffffffffffffffffffffffffffffffffffffffffffffffffffff82036105c5576105c4610553565b5b60018201905091905056fea2646970667358221220470546a7ee10ef6595ec19cc17d8059c7cf0c909c833b71a4b9da6ffceddbc0964736f6c634300081a0033",
			"opcodes": "PUSH1 0x80 PUSH1 0x40 MSTORE CALLVALUE DUP1 ISZERO PUSH1 0xE JUMPI PUSH0 DUP1 REVERT JUMPDEST POP PUSH2 0x606 DUP1 PUSH2 0x1C PUSH0 CODECOPY PUSH0 RETURN INVALID PUSH1 0x80 PUSH1 0x40 MSTORE CALLVALUE DUP1 ISZERO PUSH2 0xF JUMPI PUSH0 DUP1 REVERT JUMPDEST POP PUSH1 0x4 CALLDATASIZE LT PUSH2 0x29 JUMPI PUSH0 CALLDATALOAD PUSH1 0xE0 SHR DUP1 PUSH4 0x2A7B2C93 EQ PUSH2 0x2D JUMPI JUMPDEST PUSH0 DUP1 REVERT JUMPDEST PUSH2 0x47 PUSH1 0x4 DUP1 CALLDATASIZE SUB DUP2 ADD SWAP1 PUSH2 0x42 SWAP2 SWAP1 PUSH2 0x3B0 JUMP JUMPDEST PUSH2 0x5D JUMP JUMPDEST PUSH1 0x40 MLOAD PUSH2 0x54 SWAP2 SWAP1 PUSH2 0x506 JUMP JUMPDEST PUSH1 0x40 MLOAD DUP1 SWAP2 SUB SWAP1 RETURN JUMPDEST PUSH2 0x65 PUSH2 0x23B JUMP JUMPDEST PUSH2 0x6D PUSH2 0x23B JUMP JUMPDEST PUSH0 DUP1 DUP5 MLOAD SWAP1 POP PUSH0 PUSH1 0x20 PUSH8 0xFFFFFFFFFFFFFFFF DUP2 GT ISZERO PUSH2 0x8F JUMPI PUSH2 0x8E PUSH2 0x28C JUMP JUMPDEST JUMPDEST PUSH1 0x40 MLOAD SWAP1 DUP1 DUP3 MSTORE DUP1 PUSH1 0x1F ADD PUSH1 0x1F NOT AND PUSH1 0x20 ADD DUP3 ADD PUSH1 0x40 MSTORE DUP1 ISZERO PUSH2 0xC1 JUMPI DUP2 PUSH1 0x20 ADD PUSH1 0x1 DUP3 MUL DUP1 CALLDATASIZE DUP4 CALLDATACOPY DUP1 DUP3 ADD SWAP2 POP POP SWAP1 POP JUMPDEST POP SWAP1 POP PUSH0 DUP1 JUMPDEST DUP4 DUP2 LT ISZERO PUSH2 0x200 JUMPI PUSH0 DUP9 DUP3 DUP2 MLOAD DUP2 LT PUSH2 0xE3 JUMPI PUSH2 0xE2 PUSH2 0x526 JUMP JUMPDEST JUMPDEST PUSH1 0x20 ADD ADD MLOAD PUSH1 0xF8 SHR PUSH1 0xF8 SHL SWAP1 POP PUSH1 0x20 PUSH1 0xF8 SHL DUP2 PUSH31 0xFFFFFFFFFFFFFFFFFFFFFFFFFFFFFFFFFFFFFFFFFFFFFFFFFFFFFFFFFFFFFF NOT AND SUB PUSH2 0x1A3 JUMPI PUSH0 DUP5 SWAP1 POP DUP1 DUP9 DUP9 DUP1 PUSH2 0x12E SWAP1 PUSH2 0x589 JUMP JUMPDEST SWAP10 POP PUSH1 0x20 DUP2 LT PUSH2 0x141 JUMPI PUSH2 0x140 PUSH2 0x526 JUMP JUMPDEST JUMPDEST PUSH1 0x20 MUL ADD DUP2 SWAP1 MSTORE POP PUSH1 0x20 PUSH8 0xFFFFFFFFFFFFFFFF DUP2 GT ISZERO PUSH2 0x164 JUMPI PUSH2 0x163 PUSH2 0x28C JUMP JUMPDEST JUMPDEST PUSH1 0x40 MLOAD SWAP1 DUP1 DUP3 MSTORE DUP1 PUSH1 0x1F ADD PUSH1 0x1F NOT AND PUSH1 0x20 ADD DUP3 ADD PUSH1 0x40 MSTORE DUP1 ISZERO PUSH2 0x196 JUMPI DUP2 PUSH1 0x20 ADD PUSH1 0x1 DUP3 MUL DUP1 CALLDATASIZE DUP4 CALLDATACOPY DUP1 DUP3 ADD SWAP2 POP POP SWAP1 POP JUMPDEST POP SWAP5 POP PUSH0 SWAP4 POP POP POP PUSH2 0x1F3 JUMP JUMPDEST DUP1 DUP5 DUP5 DUP1 PUSH2 0x1B0 SWAP1 PUSH2 0x589 JUMP JUMPDEST SWAP6 POP DUP2 MLOAD DUP2 LT PUSH2 0x1C3 JUMPI PUSH2 0x1C2 PUSH2 0x526 JUMP JUMPDEST JUMPDEST PUSH1 0x20 ADD ADD SWAP1 PUSH31 0xFFFFFFFFFFFFFFFFFFFFFFFFFFFFFFFFFFFFFFFFFFFFFFFFFFFFFFFFFFFFFF NOT AND SWAP1 DUP2 PUSH0 BYTE SWAP1 MSTORE8 POP POP JUMPDEST DUP1 DUP1 PUSH1 0x1 ADD SWAP2 POP POP PUSH2 0xC7 JUMP JUMPDEST POP PUSH0 DUP3 SWAP1 POP DUP1 DUP7 DUP7 DUP1 PUSH2 0x212 SWAP1 PUSH2 0x589 JUMP JUMPDEST SWAP8 POP PUSH1 0x20 DUP2 LT PUSH2 0x225 JUMPI PUSH2 0x224 PUSH2 0x526 JUMP JUMPDEST JUMPDEST PUSH1 0x20 MUL ADD DUP2 SWAP1 MSTORE POP DUP6 SWAP7 POP POP POP POP POP POP POP SWAP2 SWAP1 POP JUMP JUMPDEST PUSH1 0x40 MLOAD DUP1 PUSH2 0x400 ADD PUSH1 0x40 MSTORE DUP1 PUSH1 0x20 SWAP1 JUMPDEST PUSH1 0x60 DUP2 MSTORE PUSH1 0x20 ADD SWAP1 PUSH1 0x1 SWAP1 SUB SWAP1 DUP2 PUSH2 0x24B JUMPI SWAP1 POP POP SWAP1 JUMP JUMPDEST PUSH0 PUSH1 0x40 MLOAD SWAP1 POP SWAP1 JUMP JUMPDEST PUSH0 DUP1 REVERT JUMPDEST PUSH0 DUP1 REVERT JUMPDEST PUSH0 DUP1 REVERT JUMPDEST PUSH0 DUP1 REVERT JUMPDEST PUSH0 PUSH1 0x1F NOT PUSH1 0x1F DUP4 ADD AND SWAP1 POP SWAP2 SWAP1 POP JUMP JUMPDEST PUSH32 0x4E487B7100000000000000000000000000000000000000000000000000000000 PUSH0 MSTORE PUSH1 0x41 PUSH1 0x4 MSTORE PUSH1 0x24 PUSH0 REVERT JUMPDEST PUSH2 0x2C2 DUP3 PUSH2 0x27C JUMP JUMPDEST DUP2 ADD DUP2 DUP2 LT PUSH8 0xFFFFFFFFFFFFFFFF DUP3 GT OR ISZERO PUSH2 0x2E1 JUMPI PUSH2 0x2E0 PUSH2 0x28C JUMP JUMPDEST JUMPDEST DUP1 PUSH1 0x40 MSTORE POP POP POP JUMP JUMPDEST PUSH0 PUSH2 0x2F3 PUSH2 0x263 JUMP JUMPDEST SWAP1 POP PUSH2 0x2FF DUP3 DUP3 PUSH2 0x2B9 JUMP JUMPDEST SWAP2 SWAP1 POP JUMP JUMPDEST PUSH0 PUSH8 0xFFFFFFFFFFFFFFFF DUP3 GT ISZERO PUSH2 0x31E JUMPI PUSH2 0x31D PUSH2 0x28C JUMP JUMPDEST JUMPDEST PUSH2 0x327 DUP3 PUSH2 0x27C JUMP JUMPDEST SWAP1 POP PUSH1 0x20 DUP2 ADD SWAP1 POP SWAP2 SWAP1 POP JUMP JUMPDEST DUP3 DUP2 DUP4 CALLDATACOPY PUSH0 DUP4 DUP4 ADD MSTORE POP POP POP JUMP JUMPDEST PUSH0 PUSH2 0x354 PUSH2 0x34F DUP5 PUSH2 0x304 JUMP JUMPDEST PUSH2 0x2EA JUMP JUMPDEST SWAP1 POP DUP3 DUP2 MSTORE PUSH1 0x20 DUP2 ADD DUP5 DUP5 DUP5 ADD GT ISZERO PUSH2 0x370 JUMPI PUSH2 0x36F PUSH2 0x278 JUMP JUMPDEST JUMPDEST PUSH2 0x37B DUP5 DUP3 DUP6 PUSH2 0x334 JUMP JUMPDEST POP SWAP4 SWAP3 POP POP POP JUMP JUMPDEST PUSH0 DUP3 PUSH1 0x1F DUP4 ADD SLT PUSH2 0x397 JUMPI PUSH2 0x396 PUSH2 0x274 JUMP JUMPDEST JUMPDEST DUP2 CALLDATALOAD PUSH2 0x3A7 DUP5 DUP3 PUSH1 0x20 DUP7 ADD PUSH2 0x342 JUMP JUMPDEST SWAP2 POP POP SWAP3 SWAP2 POP POP JUMP JUMPDEST PUSH0 PUSH1 0x20 DUP3 DUP5 SUB SLT ISZERO PUSH2 0x3C5 JUMPI PUSH2 0x3C4 PUSH2 0x26C JUMP JUMPDEST JUMPDEST PUSH0 DUP3 ADD CALLDATALOAD PUSH8 0xFFFFFFFFFFFFFFFF DUP2 GT ISZERO PUSH2 0x3E2 JUMPI PUSH2 0x3E1 PUSH2 0x270 JUMP JUMPDEST JUMPDEST PUSH2 0x3EE DUP5 DUP3 DUP6 ADD PUSH2 0x383 JUMP JUMPDEST SWAP2 POP POP SWAP3 SWAP2 POP POP JUMP JUMPDEST PUSH0 PUSH1 0x20 SWAP1 POP SWAP2 SWAP1 POP JUMP JUMPDEST PUSH0 DUP2 SWAP1 POP SWAP3 SWAP2 POP POP JUMP JUMPDEST PUSH0 DUP2 SWAP1 POP SWAP2 SWAP1 POP JUMP JUMPDEST PUSH0 DUP2 MLOAD SWAP1 POP SWAP2 SWAP1 POP JUMP JUMPDEST PUSH0 DUP3 DUP3 MSTORE PUSH1 0x20 DUP3 ADD SWAP1 POP SWAP3 SWAP2 POP POP JUMP JUMPDEST DUP3 DUP2 DUP4 MCOPY PUSH0 DUP4 DUP4 ADD MSTORE POP POP POP JUMP JUMPDEST PUSH0 PUSH2 0x446 DUP3 PUSH2 0x414 JUMP JUMPDEST PUSH2 0x450 DUP2 DUP6 PUSH2 0x41E JUMP JUMPDEST SWAP4 POP PUSH2 0x460 DUP2 DUP6 PUSH1 0x20 DUP7 ADD PUSH2 0x42E JUMP JUMPDEST PUSH2 0x469 DUP2 PUSH2 0x27C JUMP JUMPDEST DUP5 ADD SWAP2 POP POP SWAP3 SWAP2 POP POP JUMP JUMPDEST PUSH0 PUSH2 0x47F DUP4 DUP4 PUSH2 0x43C JUMP JUMPDEST SWAP1 POP SWAP3 SWAP2 POP POP JUMP JUMPDEST PUSH0 PUSH1 0x20 DUP3 ADD SWAP1 POP SWAP2 SWAP1 POP JUMP JUMPDEST PUSH0 PUSH2 0x49D DUP3 PUSH2 0x3F7 JUMP JUMPDEST PUSH2 0x4A7 DUP2 DUP6 PUSH2 0x401 JUMP JUMPDEST SWAP4 POP DUP4 PUSH1 0x20 DUP3 MUL DUP6 ADD PUSH2 0x4B9 DUP6 PUSH2 0x40B JUMP JUMPDEST DUP1 PUSH0 JUMPDEST DUP6 DUP2 LT ISZERO PUSH2 0x4F4 JUMPI DUP5 DUP5 SUB DUP10 MSTORE DUP2 MLOAD PUSH2 0x4D5 DUP6 DUP3 PUSH2 0x474 JUMP JUMPDEST SWAP5 POP PUSH2 0x4E0 DUP4 PUSH2 0x487 JUMP JUMPDEST SWAP3 POP PUSH1 0x20 DUP11 ADD SWAP10 POP POP PUSH1 0x1 DUP2 ADD SWAP1 POP PUSH2 0x4BC JUMP JUMPDEST POP DUP3 SWAP8 POP DUP8 SWAP6 POP POP POP POP POP POP SWAP3 SWAP2 POP POP JUMP JUMPDEST PUSH0 PUSH1 0x20 DUP3 ADD SWAP1 POP DUP2 DUP2 SUB PUSH0 DUP4 ADD MSTORE PUSH2 0x51E DUP2 DUP5 PUSH2 0x493 JUMP JUMPDEST SWAP1 POP SWAP3 SWAP2 POP POP JUMP JUMPDEST PUSH32 0x4E487B7100000000000000000000000000000000000000000000000000000000 PUSH0 MSTORE PUSH1 0x32 PUSH1 0x4 MSTORE PUSH1 0x24 PUSH0 REVERT JUMPDEST PUSH32 0x4E487B7100000000000000000000000000000000000000000000000000000000 PUSH0 MSTORE PUSH1 0x11 PUSH1 0x4 MSTORE PUSH1 0x24 PUSH0 REVERT JUMPDEST PUSH0 DUP2 SWAP1 POP SWAP2 SWAP1 POP JUMP JUMPDEST PUSH0 PUSH2 0x593 DUP3 PUSH2 0x580 JUMP JUMPDEST SWAP2 POP PUSH32 0xFFFFFFFFFFFFFFFFFFFFFFFFFFFFFFFFFFFFFFFFFFFFFFFFFFFFFFFFFFFFFFFF DUP3 SUB PUSH2 0x5C5 JUMPI PUSH2 0x5C4 PUSH2 0x553 JUMP JUMPDEST JUMPDEST PUSH1 0x1 DUP3 ADD SWAP1 POP SWAP2 SWAP1 POP JUMP INVALID LOG2 PUSH5 0x6970667358 0x22 SLT KECCAK256 SELFBALANCE SDIV CHAINID 0xA7 0xEE LT 0xEF PUSH6 0x95EC19CC17D8 SDIV SWAP13 PUSH29 0xF0C909C833B71A4B9DA6FFCEDDBC0964736F6C634300081A0033000000 "
		},
		"gasEstimates": {
			"creation": {
				"codeDepositCost": "308400",
				"executionCost": "347",
				"totalCost": "308747"
			},
			"external": {
				"split(string)": "infinite"
			}
		},
		"methodIdentifiers": {
			"split(string)": "2a7b2c93"
		}
	},
	"abi": [
		{
			"inputs": [
				{
					"internalType": "string",
					"name": "sentence",
					"type": "string"
				}
			],
			"name": "split",
			"outputs": [
				{
					"internalType": "string[32]",
					"name": "",
					"type": "string[32]"
				}
			],
			"stateMutability": "pure",
			"type": "function"
		}
	]
}